:020000040800F2
:10000000B806002099010008A50D0008550B00084E
:10001000590C0008D9090008FD1D00080000000067
:100020000000000000000000000000005F12000857
:10003000DD09000800000000A70D000849130008B2
:10004000B3010008B3010008B3010008B3010008C0
:10005000B3010008B3010008B3010008B3010008B0
:10006000B3010008B3010008B3010008B3010008A0
:10007000B3010008B3010008B3010008B301000890
:10008000B3010008B3010008B3010008B301000880
:10009000B3010008B3010008B3010008B301000870
:1000A000B3010008B3010008B3010008B301000860
:1000B000B3010008B3010008B3010008B301000850
:1000C000B3010008B3010008B3010008B301000840
:1000D000B3010008B3010008B3010008B301000830
:1000E000B3010008B3010008B301000800F002F8F2
:1000F00000F042F80AA090E8000C82448344AAF180
:100100000107DA4501D100F037F8AFF2090EBAE87D
:100110000F0013F0010F18BFFB1A43F0010318473B
:100120005020000070200000103A24BF78C878C129
:10013000FAD8520724BF30C830C144BF04680C60ED
:10014000704700000023002400250026103A28BF35
:1001500078C1FBD8520728BF30C148BF0B60704739
:10016000642900F09D80732900F02F8200207047E1
:100170001FB51FBD10B510BD00F02BFA1146FFF7DB
:10018000F7FF01F044FE00F049FA03B4FFF7F2FF75
:1001900003BC00F051FA00000948804709480047B5
:1001A000FEE7FEE7FEE7FEE7FEE7FEE7FEE7FEE727
:1001B000FEE7FEE704480549054A064B7047000084
:1001C0004D130008ED000008B8000020B80600201C
:1001D000B8020020B80200200FB41CB5074B06AAD5
:1001E0007B4469460090059800F0C5F900206946F7
:1001F00000F0D4F91CBC5DF814FB0000B90300004A
:1002000070B5044685690068C10601D5302600E056
:100210002026C00707D070BDD4E9012130469047A1
:10022000206A401C20626D1EF6D570BD70B5044674
:1002300085690078C00707D170BDD4E9012120206D
:100240009047206A401C20626D1EF6D570BD70B5C7
:100250000C460546012A05D02878800600D5EA69B3
:10026000002302E0012305E05B1C934202D2E05C24
:100270000028F9D1A869E618C01AA861286A1844AC
:1002800028622846FFF7BCFF04E0D5E9012114F8F5
:10029000010B9047B442F8D32846FFF7C7FF70BD63
:1002A0002DE9F0410646002410687529314616A54F
:1002B00010D0AFF30080002802DA404213A507E017
:1002C00031688A0701D512A502E0490704D511A5B6
:1002D000012401E0AFF3008000210A2206F1240787
:1002E00009E0B0FBF2FCB0FBF2F302FB1C00303083
:1002F00078541846491C0028F3D123462A46304634
:10030000BDE8F04100F0D9B8000000002D00000069
:100310002B000000200000002DE9F05F8946044614
:100320004FF0000ADFF824B1FB44C0F820A02046BB
:10033000E168884700287DD0252806D0D4E901212E
:100340009047206A401C2062F1E700255F46204666
:10035000E16888472028064607DB312E05D2B81908
:1003600010F8200C08B10543F1E7A80701D525F0E6
:100370000405C4F81CA00027C4F818A02A2E09D030
:10038000304601F03DFD38B304EB8708303EC8F835
:10039000186019E059F8041B204604EB87029161AC
:1003A000E1688847012F064618D1E069002820DA65
:1003B00025F020051DE0D8F8180000EB800006EBC2
:1003C00040003038C8F818002046E16888470646E3
:1003D00001F016FD0028EED1012F0AD02E2E08D1F3
:1003E0002046E16888477F1C0646022F45F020051D
:1003F000C4DBA069002803DA404245F00105A06192
:10040000E80701D025F01005A6B1A6F14100192892
:1004100002D8203645F400654A463146204625601C
:100420004D46FFF79DFE60B1012807D0ED1D25F078
:10043000070000E007E000F1080978E705F104098A
:1004400075E730467AE7206ABDE8F09FF41D0000AA
:1004500010B5203AC0F00B80B1E81850203AA0E85F
:100460001850B1E81850A0E81850BFF4F5AF5FEA93
:10047000027C24BFB1E81850A0E8185044BF18C946
:1004800018C0BDE810405FEA827C24BF51F8043BED
:1004900040F8043B08BF7047D20728BF31F8023B41
:1004A00048BF11F8012B28BF20F8023B48BF00F8D5
:1004B000012B70477047704770472DE9F0470D4694
:1004C00099469246044600F124080168880604D53E
:1004D000E06921F01001216000E00120A84201DD67
:1004E000471B00E00027A1697A1902EB0900081AEE
:1004F000A0612078C00602D42046FFF781FE0026C6
:1005000008E0D4E901211AF806009047206A401C4F
:10051000761C20624E45F4DB2078C0060AD52046C2
:10052000FFF76EFE06E0D4E9012130209047206AF3
:10053000401C2062381EA7F10107F4DC07E0D4E973
:10054000012118F805009047206A401C2062281EEF
:10055000A5F10105F3DC2046FFF768FE20780006D0
:1005600002D50220BDE8F0870120FBE701694A1CA3
:1005700002610878704700B58FB0CDE901310021E4
:10058000059105497944CDE9031011466846FFF706
:10059000C3FE0FB000BD0000E5FFFFFF0A6802F8D0
:1005A000010B0A60704710B5436913B1AFF30080C7
:1005B00001E0FFF74CFE012010BD127800F124018C
:1005C0000A7000224A700122EDE711684FF0FF32F5
:1005D000E9E7754600F02CF8AE460500694653463B
:1005E00020F00700854618B020B5FFF7E3FDBDE811
:1005F00020404FF000064FF000074FF000084FF08A
:10060000000B21F00701AC46ACE8C009ACE8C0091A
:10061000ACE8C009ACE8C0098D46704710B5044687
:10062000AFF300802046BDE81040FFF7AEBD0000EC
:10063000004870475400002001491820ABBEFEE777
:1006400026000200704700000C48407920B10128C4
:1006500006D002280CD107E00220084908710BE0FF
:1006600004200649087107E005200449087103E0E9
:1006700006200249087100BF00BF70472C0000200F
:1006800010B5044604B910BD00205B494873042C22
:1006900019D10846007910B90120087112E05648B6
:1006A000007903280BD100205349887208468079CD
:1006B000C0EB0010800008810120087102E00120D9
:1006C0004D490871DFE74C48007907286FD2DFE811
:1006D00000F0040A2A8989506F00032C02D10120FE
:1006E0004549087184E0012C0AD14348407908B992
:1006F000032002E040484079401E3F49487111E024
:10070000022C0BD13C484079401C3B4948710846BB
:100710004079042806DB0020487103E0032C01D156
:10072000FFF792FF64E0012C09D1334880793C281F
:1007300005DA31488079401D2F49887118E0022C74
:1007400009D12D488079052805DD2B488079401F87
:10075000294988710CE0032C0AD127488079C0EB25
:10076000001080002449088101208872032008714C
:100770003EE0012C0CD12048C07A642808DA1E48DB
:10078000C07A19301C49C872C87A00F0E1FC0DE04B
:10079000022C0BD11848C07A192807DD1648C07AF8
:1007A00019381549C872C87A00F0D2FC20E019E067
:1007B000012C0AD110484078401C3C2190FBF1F2FA
:1007C00001FB12000C4948700BE0022C09D10A48C9
:1007D000407808B93B2002E007484078401E0649AF
:1007E000487005E0032C02D101200349087100BFC5
:1007F00000BF00BF47E700002C00002010B5072015
:10080000164908700A20487000208870C870087166
:1008100048711920887108468079C0EB001080006B
:100820000881002088724B20C8720020087348732A
:100830000846C078C0EBC000094901EBC000074979
:10084000086100F0F3F900F03DFA0449C87A00F0BD
:100850007FFC024800F03EFA10BD00002C00002092
:100860001A1E000870B50025322000F0B8F81548AF
:10087000008832301349088000F06EF9044604B154
:1008800001252046FFF7FCFE0E480088B0F57A7F70
:1008900012DB00200B49088000F018F800F052F835
:1008A00000F064F808480079032801D1012503E02D
:1008B0000548807800B9012515B1034800F00AFA0F
:1008C00070BD0000000000202C0000201B48807834
:1008D000401C1A498870084680783C2805DB0020B7
:1008E000887008464078401C4870144840783C287E
:1008F00008DB124840783C381049487008460078B8
:10090000401C08700D480078182815DB00200B49A2
:1009100008700846C078401CC8700846C078052892
:1009200001DB0020C8700548C078C0EBC000044956
:1009300001EBC00001490861704700002C00002055
:100940001A1E00080848807A68B107480089002804
:1009500009DD05480089401E0349088108460089D1
:1009600008B90020887270472C00002030B50023A1
:10097000184C23732346DB78052B00DB30BD154B69
:100980005B78144C2478C4EB041403EB840100203E
:100990001CE0104B1B69C0EBC00403EB44035B7B02
:1009A0000C4C2469C0EBC00504EB4504247BC4EB6C
:1009B000041403EB84028A4206DB531A3C2B03DC4B
:1009C000431C044C2373D9E7431CD8B20428E0DB52
:1009D00000BFD3E72C00002000BFFEE7704700B542
:1009E000034603E04FF47A7000F005F8181EA3F1F7
:1009F0000103F7D100BD00EBC001C9004FF0E022B8
:100A00005161002191610521116100BF4FF0E0218A
:100A1000096901F480310029F8D004214FF0E02267
:100A2000116170472DE9F0410246002500260020A3
:100A300000230024002791F803C00CF00F0591F863
:100A400003C00CF0100CBCF1000F03D091F802C0F1
:100A50004CEA050591F800C0BCF1000F31D01468D4
:100A600000202BE04FF0010C0CFA00F3B1F800C0AD
:100A70000CEA03069E4220D183004FF00F0C0CFAC3
:100A800003F7BC4305FA03FC4CEA040491F803C0E5
:100A9000BCF1280F06D14FF0010C0CFA00FCC2F893
:100AA00014C00AE091F803C0BCF1480F05D14FF023
:100AB000010C0CFA00FCC2F810C0401C0828D1D36D
:100AC0001460B1F800C0BCF1FF0F34DD54680020A1
:100AD0002EE000F1080C4FF0010808FA0CF3B1F811
:100AE00000C00CEA03069E4221D183004FF00F0C98
:100AF0000CFA03F7BC4305FA03FC4CEA040491F832
:100B000003C0BCF1280F05D100F1080C08FA0CF85D
:100B1000C2F8148091F803C0BCF1480F07D100F16E
:100B2000080C4FF0010808FA0CF8C2F81080401CBD
:100B30000828CED35460BDE8F081024600209368B7
:100B40000B400BB1012000E000207047416170476D
:100B50000161704700BFFEE710B54FF48051324885
:100B6000FFF7EBFF90B91420FFF739FF4FF48051E6
:100B70002D48FFF7E2FF48B900BF4FF480512A48E3
:100B8000FFF7DBFF0028F8D0012010BD4FF4005123
:100B90002548FFF7D2FF90B91420FFF720FF4FF44C
:100BA00000512148FFF7C9FF48B900BF4FF4005179
:100BB0001D48FFF7C2FF0028F8D00220E5E74FF4F8
:100BC00080411948FFF7B9FF90B91420FFF707FFDC
:100BD0004FF480411448FFF7B0FF48B900BF4FF40D
:100BE00080411148FFF7A9FF0028F8D00320CCE787
:100BF0004FF400410C48FFF7A0FF90B91420FFF715
:100C0000EEFE4FF400410848FFF797FF48B900BFD8
:100C10004FF400410448FFF790FF0028F8D004206B
:100C2000B3E70020B1E70000000C014008B5012146
:100C3000082000F0C9F848208DF803004FF47040F8
:100C4000ADF8000003208DF8020069460148FFF767
:100C5000E9FE08BD000C014000BFFEE710B50446E8
:100C6000207906281CD2DFE800F003070B0F1317CA
:100C7000204600F08FFD17E0204600F043FE13E011
:100C8000204600F0A5FC0FE0204600F089FC0BE0B8
:100C9000204600F0B3FE07E0204600F017FF03E017
:100CA000204600F097FF00BF00BF142221460348F2
:100CB000FFF7CEFB01200249087010BD4000002064
:100CC0002800002010B500F0D7F9012000F054FAF8
:100CD00010BD000010B504463048007820B12079DE
:100CE0002F490979884203D02046FFF7B7FF10BD8E
:100CF0002079072846D2DFE800F030044513452765
:100D00003100607926494979884208D024494879D8
:100D1000002100F043FE6079012100F03FFE35E044
:100D200020891F490989884205D0204600F000FD2E
:100D3000204600F019FCA07A1949897A884202D02D
:100D4000204600F0B7FC21E0E07A1549C97A8842D4
:100D500002D0204601F026F818E000BF6078104964
:100D60004978884209D120780D490978884204D110
:100D7000207B0B49097B884203D02046FFF76EFF9A
:100D8000B5E703E02046FFF769FFB0E700BF142294
:100D900021460348FFF75CFB00BFA8E728000020BE
:100DA000400000207047704729B1064AD2690243CB
:100DB000044BDA6104E0034AD2698243014BDA61F1
:100DC000704700000010024029B1064A92690243B0
:100DD000044B9A6104E0034A92698243014B9A6191
:100DE000704700000010024000B587B040F2E730C5
:100DF000ADF814004720ADF810000020ADF8160043
:100E0000ADF8120004A9104800F044FB6020ADF8D2
:100E100000000120ADF802000020ADF80800ADF898
:100E200006006946084800F0D9FA0821064800F093
:100E300025FB0121044800F0B9FA0121024800F025
:100E4000C1FA07B000BD0000000400402DE9FE4FCC
:100E50008046894616469A460D9D05B90125202EE5
:100E600001DB7E2E00DD3F26002431E0052C07DA71
:100E7000A6F1200000EB800017490844005D00E067
:100E80000020029000271FE004FB05801FFA80FB72
:100E900007FB059080B201900120B84002990840FC
:100EA00040B12B462A46CDF800A05846019900F0E3
:100EB0005FF807E00C982B462A46009058460199A7
:100EC00000F056F8781CC7B2082FDDDB601CC4B2F6
:100ED000062CCBDBBDE8FE8F341F00082DE9F8435C
:100EE0000746884615461E46089C05B10EB9BDE862
:100EF000F88301232A4641463846009400F038F82A
:100F000008EB0600401E81B201232A4638460094B1
:100F100000F02EF83346012241463846009400F096
:100F200027F87919491E88B23346012241460094B8
:100F300000F01EF800BFDAE72DE9FC4705460F4632
:100F400014469846DDE90A960CE0CDE90096227831
:100F5000434639462846FFF779FF062000FB065036
:100F600085B2641C20780028EFD1BDE8FC87000022
:100F70002DE9F04704460D4616461F46DDF8209041
:100F8000802C01DA802D01DBBDE8F087A0198028D4
:100F900002DDC4F1800086B2E819802802DDC5F1C7
:100FA000800087B2E819401E83B2A019401E82B2A9
:100FB0002946204600F0A6F810210E48FFF7C6FD8E
:100FC00008210C48FFF7C4FD06FB07F809E04FEACB
:100FD000292000F0F1F809F0FF0000F0EDF8A8F189
:100FE0000108B8F1000FF2D110210248FFF7B0FD5F
:100FF00000BFC9E70008014038B5044680231A46FF
:10100000002108460094FFF7B3FF38BD08B5012161
:101010000C20FFF7D9FE01210220FFF7C5FE1020AA
:101020008DF8030003208DF80200BC20ADF800000D
:1010300069460F48FFF7F6FC18208DF803000120E1
:10104000ADF8000069460B48FFF7ECFC102108489A
:10105000FFF77EFD20210648FFF77AFD8021044836
:10106000FFF776FD04210248FFF772FD08BD00007E
:1010700000080140000C014010B5FFF7C7FFFFF763
:10108000B3FE002000F064F804211D48FFF75EFD68
:101090003220FFF7A4FC04211948FFF759FD7820FE
:1010A000FFF79DFC012000F0A9F89620FFF797FCC0
:1010B000112000F0A3F89620FFF791FC3A2000F0F1
:1010C0009DF8052000F0AEF80A20FFF788FC01200B
:1010D00000F052F8212000F091F8132000F08EF873
:1010E0000A20FFF77CFC292000F088F87820FFF721
:1010F00076FC4B2000F02CF80020FFF77DFF10BDA0
:10110000000801402DE9F04107460C4615461E46F1
:10111000B81C87B2A81C85B2E01C84B2F01C86B251
:101120002A2000F06BF8384600F090F8284600F0CE
:101130008DF82B2000F062F8204600F087F830464A
:1011400000F084F82C2000F059F8BDE8F081000090
:1011500070B50446642C00DD64244FF47A7060435B
:101160006421B0FBF1F085B22946024800F08FF906
:1011700070BD00000004004010B50446362000F0A9
:101180003DF804F0030020B1012806D002280CD15C
:1011900007E0C82000F046F80BE0A82000F042F875
:1011A00007E0082000F03EF803E0682000F03AF87D
:1011B00000BF00BF10BD000070B50446002517E059
:1011C00020210D48FFF7C2FC04F0800020B18021EF
:1011D0000948FFF7BDFC03E080210748FFF7B6FC94
:1011E00020210548FFF7B4FC6006040E681CC5B258
:1011F000082DE5DB70BD00000008014010B5044675
:1012000010210748FFF7A2FC08210548FFF79EFCC4
:101210002046FFF7D1FF10210148FFF799FC10BDD0
:101220000008014010B5044610210748FFF78EFC66
:1012300008210548FFF78CFC2046FFF7BDFF102171
:101240000148FFF785FC10BD0008014010B50446B9
:101250002012FFF7E7FFE0B2FFF7E4FF10BD704791
:1012600010B500F001F810BD0CB500200190009001
:101270003348006840F480303149086000BF30488E
:10128000006800F4003000900198401C0190009824
:1012900018B90198B0F5A06FF1D12948006800F4A1
:1012A000003010B10120009001E000200090009873
:1012B000012843D12348006840F01000214908600C
:1012C0000846006820F0030008600846006840F007
:1012D000020008601A48406819494860084640689A
:1012E00048600846406840F48060486008464068AE
:1012F00020F47C1048600846406840F4E8104860DC
:101300000846006840F08070086000BF0C48006824
:1013100000F000700028F9D00948406820F0030070
:10132000074948600846406840F00200486000BF36
:101330000348406800F00C000828F9D10CBD0000FB
:1013400000100240002002407047000010B5134812
:10135000006840F0010011490860084640681049E3
:1013600008400E494860084600680E4908400B498D
:1013700008600846006820F480200860084640683D
:1013800020F4FE0048604FF41F008860FFF768FFFC
:101390004FF000600449086010BD000000100240DA
:1013A0000000FFF8FFFFF6FE08ED00E021B1028823
:1013B00042F08002028004E002884FF67F731A40F8
:1013C0000280704721B1028842F00102028004E0ED
:1013D00002884FF6FE731A400280704770B50024F1
:1013E00000220023058C4FF6FF6635400584028CF1
:1013F0008388848B4FF68F752C404FF6FC752C40FC
:101400000D882C434FF6FF552A400D894FF6FF7685
:1014100006EA05252A434D8806EA05252A43154D87
:10142000A84202D0144DA8421DD14FF2FF752A40A8
:101430004D894FF6FF7606EA05252A434FF6FF351C
:101440002A408D8806EA05252A434EF6FF752B4073
:101450004DF6FF752B408D8906EA05152B43CD8986
:1014600006EA05152B4383808483CD888587028413
:1014700070BD0000002C0140003401400A460021EC
:10148000818B4FF6F7731940114381837047818731
:1014900070470000002202881D4B98420ED01D4B61
:1014A00098420BD0B0F1804F08D01B4B984205D02A
:1014B0001A4B984202D01A4B984204D14FF68F73C0
:1014C0001A404B881A43174B984207D0164B984244
:1014D00004D04FF6FF431A40CB881A4302808B8812
:1014E00083850B8803850A4B98420BD0094B9842A1
:1014F00008D00E4B984205D00D4B984202D00D4BB0
:10150000984201D10B7A0386012383827047000041
:10151000002C01400034014000040040000800405D
:10152000000C00400010004000140040004001404A
:1015300000440140004801401CB5044641F28200CD
:101540000E238022722100900020FFF711FD012060
:1015500041F2820140F2FF732246CDE9001075216D
:101560000420FFF7E9FC1CBDF8B50446A079C0EBE8
:10157000001086000EB9002507E020896421484349
:1015800090FBF6F0C0F16400C5B24FF4FC602B464E
:1015900064224C2100900E2000F0D0FBF8BD00002A
:1015A00010B5044640F64100FFF726FD06A120468F
:1015B00000F06AFB204600F0BBF82046FFF7D4FF9E
:1015C000204600F077F810BD464F43555300000009
:1015D00010B586B0044640F64100FFF70DFD1FA18F
:1015E000204600F051FB012040F641014FF6FF7309
:1015F0001DA2CDE900101E210C20FFF79DFCA27951
:101600001DA102A8FEF7E8FD022040F641014FF6B9
:10161000205302AACDE9001032211C20FFF78CFCD8
:10162000012040F641014FF4FC6316A2CDE9001001
:101630004E211220FFF780FC012040F641014FF6B9
:10164000FF7313A2CDE900105C211220FFF774FC98
:1016500013A0FFF771FF06B010BD0000464F4355C1
:101660005320534554000000466F63757320647522
:10167000726174696F6E000025303264206D696E8E
:10168000000000004F4B3A20737461727400000038
:101690004241434B3A2063616E63656C0000000079
:1016A00055502F444E2073657420204F4B20737487
:1016B000617274001CB5044640F6410008234222C2
:1016C0005C2100901A20FFF753FCA07A60B1012042
:1016D00040F641014FF4FC630BA2CDE900105C2100
:1016E0001A20FFF729FC0BE0012040F641014FF6DC
:1016F000205307A2CDE900105C211A20FFF71CFC43
:1017000006A0FFF719FF1CBD52756E6E696E67006B
:1017100046696E6973686564000000004241434B8E
:101720002063616E63656C7320666F637573000080
:1017300070B586B0044620893C2190FBF1F085B25B
:10174000208990FBF1F201FB120086B233462A4653
:101750000DA102A8FEF740FD40F6410018235A22D1
:10176000242100901420FFF703FC032040F64101E0
:101770004FF6FF7302AACDE9001024211420FFF7D1
:10178000DBFB06B070BD0000253032643A253032F4
:101790006400000030B587B0044640F64100FFF712
:1017A0002BFC3CA1204600F06FFA40F641004FF6BA
:1017B000FF7103232246CDE900101E21122000F004
:1017C0009DFA012040F6410140F2FF7333A2CDE9BA
:1017D00000103A211E20FFF7AFFB41F6E3001C2367
:1017E00070224A2100900820FFF7C2FB012041F639
:1017F000E3014FF6FF732EA2CDE9001050210E2019
:10180000FFF79AFB207B38B3207B401EC0EBC00063
:10181000216901EB4005687B00902B7B2A4626A1BD
:1018200002A8FEF7D9FC012041F6E3014FF6205350
:1018300002AACDE9001050213220FFF77DFB0120E4
:1018400041F6E3014FF620531FA2CDE900105C21C1
:101850000E20FFF771FB17E0012041F6E3014FF482
:10186000FC631DA2CDE9001050213220FFF764FB7C
:10187000012041F6E3014FF6FF731AA2CDE90010F3
:101880005C210E20FFF758FB1BA0FFF755FE07B0A9
:1018900030BD0000504F4D4F00000000546F646198
:1018A0007920666F6375732020312F3400000000AB
:1018B0004E6578743A000000257320253032643A72
:1018C0002530326400000000436C61737320696E40
:1018D000203120686F7572004E6F20616C657274E4
:1018E000000000005363686564756C6520697320AF
:1018F00063616C6D000000004F4B3A206D656E75A2
:10190000000000002DE9FC41064640F64100FFF7CB
:1019100073FB1AA1304600F0B7F9002426E0C4EBAF
:10192000C40000EB400000F119057079A04204D119
:101930004FF620574FF0000803E041F6E3074FF65B
:10194000FF7810237022294608200097FFF710FB2C
:101950000120CDE900700B4850F82420281D81B2E9
:1019600043460E20FFF7E8FA601CC4B2042CD6DB15
:1019700005A0FFF7E1FDBDE8FC8100004D454E5597
:10198000000000001800002055502F444E204F4BFF
:10199000204241434B207265616479002DE9FC418E
:1019A00004468846042C01DBBDE8FC81C4EBC4007E
:1019B00000EB400000F11906B8F1000F03D04FF61C
:1019C0002055002703E041F6E3054FF6FF7710238B
:1019D0007022314608200095FFF7CAFA0120CDE9B0
:1019E0000050054850F82420301D81B23B460E209F
:1019F000FFF7A2FA00BFD7E718000020F0B587B0C4
:101A0000054640F64100FFF7F7FA25A1284600F009
:101A10003BF900243DE0C4EBC401286900EB410719
:101A200004EB8400182101EB8006297B601C8142B5
:101A300002D14FF6205001E041F6E300102374225A
:101A4000314600900620FFF793FA00977B7B3A7BA4
:101A500016A102A8FEF7C0FB01212A7B601C82426E
:101A600002D14FF6205001E041F6E300CDE900013C
:101A70002A7B601C824201D1002001E04FF6FF70FA
:101A80000346301D81B202AA0A20FFF755FA601CF6
:101A9000C4B2042CBFDB09A0FFF74EFD07B0F0BDB8
:101AA0005343484544554C450000000025303264FE
:101AB0003A25303264202025730000004D6F6E2DD2
:101AC0004672692073746F726564000010B588B047
:101AD000044640F64100FFF78FFA29A1204600F0A6
:101AE000D3F8012040F641014FF6FF7326A2CDE95D
:101AF000001020210C20FFF71FFAE27A25A103A88D
:101B0000FEF76AFB012040F641014FF6205303AA7D
:101B1000CDE9001020215420FFF70EFA4FF6205097
:101B20000090E37A642232210E2000F007F90120B0
:101B300040F641014FF6FF7318A2CDE9001048218D
:101B40000C20FFF7F9F9012040F6410140F2FF7344
:101B500015A2CDE9001048214E20FFF7EDF9012034
:101B600040F641014FF4FC6311A2CDE90010582169
:101B70000C20FFF7E1F912A0FFF7DEFC08B010BD62
:101B800053455454494E47004261636B6C69676822
:101B900074000000256425250000000054696D656F
:101BA0002073796E630000004D616E75616C0000FA
:101BB0004B6579733A20504231322D3135000000A7
:101BC00055502F444E206272696768746E65737356
:101BD000000000001CB5044640F64100FFF70CFA77
:101BE0001AA1204600F050F8012040F641014FF6BE
:101BF000FF7319A2CDE9001020211220FFF79CF9F4
:101C000040F641004FF6205103232246CDE9001053
:101C10003421142000F072F8012040F6410140F216
:101C2000FF7311A2CDE9001056211220FFF784F9AD
:101C3000012040F641014FF6FF730FA2CDE90010DD
:101C400064211220FFF778F91CBD000054494D456E
:101C500020534554000000004D616E75616C206397
:101C60006C6F636B0000000055502F444E20616480
:101C70006A757374000000004F4B206E6578742005
:101C80006669656C6400000030B587B004460D4697
:101C90001F2012238022002100900846FFF768F9D8
:101CA00001201F214FF6FF732A46CDE900100521C0
:101CB0000420FFF741F9607800902378E0780A4922
:101CC00051F8202009A103A8FEF786FA01201F2160
:101CD0004FF6FF7303AACDE9001005214020FFF75E
:101CE0002BF907B030BD000004000020257320252B
:101CF0003032643A25303264000000002DE9F043B0
:101D000085B006460F4614461D46DDE90C8963780A
:101D1000227807A102A8FEF75FFA434602AA3946D5
:101D20003046CDE90095FFF707F905B0BDE8F0832F
:101D3000253032643A253032640000002DE9F84342
:101D400004460D4616461F46DDF82090642F00DD40
:101D50006427301F7843642190FBF1F01FFA80F86C
:101D60004FF6FF700A233246294600902046FFF7BF
:101D7000B5F841F28200331F9AB2AB1C99B2A31C92
:101D8000009098B20623FFF7F3F8AA1C91B2A21CA8
:101D900090B206234246CDF80090FFF7E9F8BDE87F
:101DA000F883000010B588B0044640F641000823CF
:101DB0002222202100905420FFF7DAF8E27A0DA1C8
:101DC00003A8FEF709FA012040F641014FF620531F
:101DD00003AACDE9001020215420FFF7ADF84FF6FB
:101DE00020500090E37A642232210E20FFF7A6FFF4
:101DF00008B010BD256425250000000000BFFEE7E7
:101E000030380A2801D20120704700207047FEF7C1
:101E1000F5FC01E0FEF726FDFCE74D61746800006B
:101E20000000000000000800456E676C69736800E0
:101E3000000000000A0050687973696373000000B5
:101E400000000E00504500000000000000000000EF
:101E500010004368696E65736500000000000800AB
:101E60004368656D00000000000000000A004D613D
:101E7000746800000000000000000E00436C7562F2
:101E800000000000000000001000456E676C6973E0
:101E9000680000000000080042696F6C6F677900FD
:101EA000000000000A00486973746F727900000036
:101EB00000000E004C616200000000000000000005
:101EC0001000506879736963730000000000080017
:101ED0004D61746800000000000000000A004172BB
:101EE000740000000000000000000E0052656164F4
:101EF000696E67000000000010004368656D000017
:101F00000000000000000800456E676C69736800FF
:101F1000000000000A00436F6D7075746572000068
:101F200000000E0052657669657700000000000031
:101F300010000000000000000000005F000000072B
:101F4000000700147F147F14242A7F2A1223130809
:101F5000646236495522500005030000001C2241EE
:101F6000000041221C0014083E081408083E08081E
:101F700000503000000808080808006060000020D9
:101F8000100804023E5149453E00427F4000426134
:101F90005149462141454B311814127F10274545C0
:101FA00045393C4A494930017109050336494949D7
:101FB00036064949291E0036360000005636000014
:101FC00008142241001414141414004122140802AD
:101FD00001510906324979413E7E1111117E7F4936
:101FE0004949363E414141227F4141221C7F4949B6
:101FF00049417F090909013E4149497A7F0808089A
:102000007F00417F41002040413F017F0814224171
:102010007F404040407F020C027F7F0408107F3EDB
:102020004141413E7F090909063E4151215E7F0938
:10203000192946464949493101017F01013F404084
:10204000403F1F2040201F3F4038403F631408148A
:102050006307087008076151494543007F4141000B
:1020600002040810200041417F00040201020440E4
:1020700040404040000102040020545454787F48FE
:102080004444383844444420384444487F38545405
:102090005418087E0901020C5252523E7F08040473
:1020A0007800447D40002040443D007F10284400DB
:1020B00000417F40007C041804787C0804047838D0
:1020C000444444387C14141408081414187C7C0804
:1020D0000404084854545420043F4440203C4040E9
:1020E000207C1C2040201C3C4030403C44281028D0
:1020F000440C5050503C4464544C44000836410059
:1021000000007F00000041360800080408100800A5
:1021100000F8E0071F00FFFFE0FFFF071FF820FDAA
:1021200004000008000000000000000200010000A0
:1021300010000000574544005455450046524900E0
:102140004D4F4E00544855005363686564756C6587
:102150000000000054696D65000000005365747450
:10216000696E677300000000466F637573000000BE
:1021700090210008000000202C0000002801000829
:10218000BC2100082C0000208C060000440100083F
:102190000000000040210008382100083421000818
:1021A000442100083C21000868210008482100085B
:0C21B0005C210008542100080000000021
:04000005080000ED02
:00000001FF
